:040000000C94003A22
:1074000011248FEF98E09EBF8DBF94B714BE892FD3
:107410008D7011F0892FECD190E89093F20083E900
:107420008093F2009093610081E08093610096BFA9
:107430008CE486BF85E08093810088E18093C10061
:1074400086E08093C20080E18093C4008DE0BAD1D1
:10745000259A96E020E33CEF51E040E2309385002E
:107460002093840056BBB09BFECF85B1842785B99D
:10747000A895915099F7882499245401CC24DD24AF
:1074800064E9662E51E0252E312C412C512C89D1F6
:10749000813461F486D1182F9BD1123829F111382B
:1074A00011F485E001C083E074D170C1823411F41D
:1074B00084E103C0853419F485E092D167C1853534
:1074C00079F46FD1E82EFF246CD1082F10E0102F33
:1074D00000270E291F29000F111F7AD1680156C1FC
:1074E000863521F484E07CD180E0DECF843609F05B
:1074F000D1C057D190E0F82EEE2453D1E80EF11C04
:1075000050D1782EE70100E011E04BD1F8018193D2
:107510008F012197D1F711BC8D2D992782BD82B59E
:1075200086958695282FD501C401022E04C0B695F4
:10753000A795979587950A94D2F780FD19C0F6E430
:107540007F16B1F4D201C10104C0880F991FAA1F90
:10755000BB1F2A95D2F7882A992AAA2ABB2A82B564
:107560008C77843729F06FBA82E98FBB0000000066
:107570002FD1E5E47E16D1F4960114C021BD2F5F12
:107580003F4F832F992782BDC050DF4F8881C05065
:10759000D14080BD82B5883720F0F4E0FFBB82E0A7
:1075A0008FBB2196CE15DF0548F3DFC082B5843747
:1075B00008F0ECC0C114D10409F04EC06091000184
:1075C00070910101872F90E0982F8827262F30E0B7
:1075D000822B932B9093850180938401409102012B
:1075E00050910301852F90E0982F8827242F30E0B9
:1075F000822B932B90938701809386012091180111
:107600008091190190E0982F882730E0822B932BEE
:10761000909389018093880120911A0180911B0128
:1076200090E0982F882730E0822B932B90938B014A
:1076300080938A01609318017093190140931A0195
:1076400050931B018CE08093000160920101109225
:107650000201EAE3E0930301E0E0F1E011BC808184
:1076600080BD81E081BD818180BD82E081BD82815C
:1076700080BD83E081BD838180BD8E2F8C0D81BD57
:1076800084EA8FBB82EA8FBB349681E0E038F8074A
:1076900029F77CC0843709F06BC083D090E0F82EC6
:1076A000EE247FD0E80EF11C7CD0182F91D0153439
:1076B00089F4E6018701C1BD21968D2F992782BDEE
:1076C000E1E0EFBB0000000080B563D00150104046
:1076D00091F74BC0E6018701209729F4809184013E
:1076E000909185013CC0C130D10529F4809184017D
:1076F000909185010FC0C230D10529F48091860197
:10770000909187012CC0C330D10539F48091860156
:1077100090918701892F992722C0C831D10529F47A
:1077200080918801909189011AC0C931D10529F44D
:107730008091880190918901EDCFCA31D10529F45A
:1077400080918A0190918B010AC0CB31D10529F437
:1077500080918A0190918B01DDCFFE018491219669
:1077600018D00150104009F0B7CFCE0CDF1C0EC06E
:10777000853739F42DD08EE10CD085E90AD08FE021
:1077800093CE813511F48CE01DD022D080E101D060
:107790007ECE982F8091C00085FFFCCF9093C600CD
:1077A00008958091C00087FFFCCF8091C00084FDC8
:1077B00001C0A8958091C60008959AE29A95F1F7C4
:1077C00008950895E0E6F0E098E1908380830895BD
:1077D000E8DF803219F08DE0F5DFFFCF84E1D9CF0B
:1077E0001F93182FDEDF1150E9F7F2DF1F91089584
:0C77F000282E80E0E7DFECE0FF27099482
:0277FE00000584
:040000030000740085
:00000001FF
